{
  "_format": "hh-sol-artifact-1",
  "contractName": "CryptoCafeToken",
  "sourceName": "contracts/CryptoCafeToken.sol",
  "abi": [
    {
      "anonymous": false,
      "inputs": [
        {
          "indexed": true,
          "internalType": "address",
          "name": "owner",
          "type": "address"
        },
        {
          "indexed": true,
          "internalType": "address",
          "name": "spender",
          "type": "address"
        },
        {
          "indexed": false,
          "internalType": "uint256",
          "name": "value",
          "type": "uint256"
        }
      ],
      "name": "Approval",
      "type": "event"
    },
    {
      "anonymous": false,
      "inputs": [
        {
          "indexed": true,
          "internalType": "address",
          "name": "previousOwner",
          "type": "address"
        },
        {
          "indexed": true,
          "internalType": "address",
          "name": "newOwner",
          "type": "address"
        }
      ],
      "name": "OwnershipTransferred",
      "type": "event"
    },
    {
      "anonymous": false,
      "inputs": [
        {
          "indexed": true,
          "internalType": "address",
          "name": "from",
          "type": "address"
        },
        {
          "indexed": true,
          "internalType": "address",
          "name": "to",
          "type": "address"
        },
        {
          "indexed": false,
          "internalType": "uint256",
          "name": "value",
          "type": "uint256"
        }
      ],
      "name": "Transfer",
      "type": "event"
    },
    {
      "inputs": [
        {
          "internalType": "address",
          "name": "owner",
          "type": "address"
        },
        {
          "internalType": "address",
          "name": "spender",
          "type": "address"
        }
      ],
      "name": "allowance",
      "outputs": [
        {
          "internalType": "uint256",
          "name": "",
          "type": "uint256"
        }
      ],
      "stateMutability": "view",
      "type": "function"
    },
    {
      "inputs": [
        {
          "internalType": "address",
          "name": "spender",
          "type": "address"
        },
        {
          "internalType": "uint256",
          "name": "amount",
          "type": "uint256"
        }
      ],
      "name": "approve",
      "outputs": [
        {
          "internalType": "bool",
          "name": "",
          "type": "bool"
        }
      ],
      "stateMutability": "nonpayable",
      "type": "function"
    },
    {
      "inputs": [
        {
          "internalType": "address",
          "name": "account",
          "type": "address"
        }
      ],
      "name": "balanceOf",
      "outputs": [
        {
          "internalType": "uint256",
          "name": "",
          "type": "uint256"
        }
      ],
      "stateMutability": "view",
      "type": "function"
    },
    {
      "inputs": [],
      "name": "decimals",
      "outputs": [
        {
          "internalType": "uint8",
          "name": "",
          "type": "uint8"
        }
      ],
      "stateMutability": "view",
      "type": "function"
    },
    {
      "inputs": [
        {
          "internalType": "address",
          "name": "spender",
          "type": "address"
        },
        {
          "internalType": "uint256",
          "name": "subtractedValue",
          "type": "uint256"
        }
      ],
      "name": "decreaseAllowance",
      "outputs": [
        {
          "internalType": "bool",
          "name": "",
          "type": "bool"
        }
      ],
      "stateMutability": "nonpayable",
      "type": "function"
    },
    {
      "inputs": [
        {
          "internalType": "address",
          "name": "spender",
          "type": "address"
        },
        {
          "internalType": "uint256",
          "name": "addedValue",
          "type": "uint256"
        }
      ],
      "name": "increaseAllowance",
      "outputs": [
        {
          "internalType": "bool",
          "name": "",
          "type": "bool"
        }
      ],
      "stateMutability": "nonpayable",
      "type": "function"
    },
    {
      "inputs": [
        {
          "internalType": "string",
          "name": "tokenName",
          "type": "string"
        },
        {
          "internalType": "string",
          "name": "tokenSymbol",
          "type": "string"
        }
      ],
      "name": "initialize",
      "outputs": [],
      "stateMutability": "nonpayable",
      "type": "function"
    },
    {
      "inputs": [],
      "name": "name",
      "outputs": [
        {
          "internalType": "string",
          "name": "",
          "type": "string"
        }
      ],
      "stateMutability": "view",
      "type": "function"
    },
    {
      "inputs": [],
      "name": "owner",
      "outputs": [
        {
          "internalType": "address",
          "name": "",
          "type": "address"
        }
      ],
      "stateMutability": "view",
      "type": "function"
    },
    {
      "inputs": [],
      "name": "renounceOwnership",
      "outputs": [],
      "stateMutability": "nonpayable",
      "type": "function"
    },
    {
      "inputs": [],
      "name": "symbol",
      "outputs": [
        {
          "internalType": "string",
          "name": "",
          "type": "string"
        }
      ],
      "stateMutability": "view",
      "type": "function"
    },
    {
      "inputs": [],
      "name": "totalSupply",
      "outputs": [
        {
          "internalType": "uint256",
          "name": "",
          "type": "uint256"
        }
      ],
      "stateMutability": "view",
      "type": "function"
    },
    {
      "inputs": [
        {
          "internalType": "address",
          "name": "recipient",
          "type": "address"
        },
        {
          "internalType": "uint256",
          "name": "amount",
          "type": "uint256"
        }
      ],
      "name": "transfer",
      "outputs": [
        {
          "internalType": "bool",
          "name": "",
          "type": "bool"
        }
      ],
      "stateMutability": "nonpayable",
      "type": "function"
    },
    {
      "inputs": [
        {
          "internalType": "address",
          "name": "sender",
          "type": "address"
        },
        {
          "internalType": "address",
          "name": "recipient",
          "type": "address"
        },
        {
          "internalType": "uint256",
          "name": "amount",
          "type": "uint256"
        }
      ],
      "name": "transferFrom",
      "outputs": [
        {
          "internalType": "bool",
          "name": "",
          "type": "bool"
        }
      ],
      "stateMutability": "nonpayable",
      "type": "function"
    },
    {
      "inputs": [
        {
          "internalType": "address",
          "name": "newOwner",
          "type": "address"
        }
      ],
      "name": "transferOwnership",
      "outputs": [],
      "stateMutability": "nonpayable",
      "type": "function"
    }
  ],
  "bytecode": "0x608060405234801561001057600080fd5b50611e53806100206000396000f3fe608060405234801561001057600080fd5b50600436106100f55760003560e01c806370a0823111610097578063a457c2d711610066578063a457c2d714610276578063a9059cbb146102a6578063dd62ed3e146102d6578063f2fde38b14610306576100f5565b806370a0823114610200578063715018a6146102305780638da5cb5b1461023a57806395d89b4114610258576100f5565b806323b872dd116100d357806323b872dd14610166578063313ce5671461019657806339509351146101b45780634cd88b76146101e4576100f5565b806306fdde03146100fa578063095ea7b31461011857806318160ddd14610148575b600080fd5b610102610322565b60405161010f91906116be565b60405180910390f35b610132600480360381019061012d91906113ea565b6103b4565b60405161013f91906116a3565b60405180910390f35b6101506103d2565b60405161015d9190611840565b60405180910390f35b610180600480360381019061017b919061139b565b6103dc565b60405161018d91906116a3565b60405180910390f35b61019e6104d4565b6040516101ab919061185b565b60405180910390f35b6101ce60048036038101906101c991906113ea565b6104dd565b6040516101db91906116a3565b60405180910390f35b6101fe60048036038101906101f99190611426565b610589565b005b61021a60048036038101906102159190611336565b6106f5565b6040516102279190611840565b60405180910390f35b61023861073e565b005b6102426107c6565b60405161024f9190611688565b60405180910390f35b6102606107f0565b60405161026d91906116be565b60405180910390f35b610290600480360381019061028b91906113ea565b610882565b60405161029d91906116a3565b60405180910390f35b6102c060048036038101906102bb91906113ea565b61096d565b6040516102cd91906116a3565b60405180910390f35b6102f060048036038101906102eb919061135f565b61098b565b6040516102fd9190611840565b60405180910390f35b610320600480360381019061031b9190611336565b610a12565b005b606060988054610331906119d5565b80601f016020809104026020016040519081016040528092919081815260200182805461035d906119d5565b80156103aa5780601f1061037f576101008083540402835291602001916103aa565b820191906000526020600020905b81548152906001019060200180831161038d57829003601f168201915b5050505050905090565b60006103c86103c1610b0a565b8484610b12565b6001905092915050565b6000609a54905090565b60006103e9848484610cdd565b6000603460008673ffffffffffffffffffffffffffffffffffffffff1673ffffffffffffffffffffffffffffffffffffffff1681526020019081526020016000206000610434610b0a565b73ffffffffffffffffffffffffffffffffffffffff1673ffffffffffffffffffffffffffffffffffffffff168152602001908152602001600020549050828110156104b4576040517f08c379a00000000000000000000000000000000000000000000000000000000081526004016104ab90611780565b60405180910390fd5b6104c8856104c0610b0a565b858403610b12565b60019150509392505050565b60006012905090565b600061057f6104ea610b0a565b8484603460006104f8610b0a565b73ffffffffffffffffffffffffffffffffffffffff1673ffffffffffffffffffffffffffffffffffffffff16815260200190815260200160002060008873ffffffffffffffffffffffffffffffffffffffff1673ffffffffffffffffffffffffffffffffffffffff1681526020019081526020016000205461057a91906118e8565b610b12565b6001905092915050565b600060019054906101000a900460ff166105b15760008054906101000a900460ff16156105ba565b6105b9610f61565b5b6105f9576040517f08c379a00000000000000000000000000000000000000000000000000000000081526004016105f090611760565b60405180910390fd5b60008060019054906101000a900460ff161590508015610649576001600060016101000a81548160ff02191690831515021790555060016000806101000a81548160ff0219169083151502179055505b6000737ea07f2254f05aee20513de3e131e462c7acb6d290508360989080519060200190610678929190611201565b50826099908051906020019061068f929190611201565b506b033b2e3c9fd0803ce8000000609a819055506106b9336b0295be96e640669720000000610f72565b6106ce816aa56fa5b99019a5c8000000610f72565b5080156106f05760008060016101000a81548160ff0219169083151502179055505b505050565b6000609760008373ffffffffffffffffffffffffffffffffffffffff1673ffffffffffffffffffffffffffffffffffffffff168152602001908152602001600020549050919050565b610746610b0a565b73ffffffffffffffffffffffffffffffffffffffff166107646107c6565b73ffffffffffffffffffffffffffffffffffffffff16146107ba576040517f08c379a00000000000000000000000000000000000000000000000000000000081526004016107b1906117a0565b60405180910390fd5b6107c46000611108565b565b6000606560009054906101000a900473ffffffffffffffffffffffffffffffffffffffff16905090565b6060609980546107ff906119d5565b80601f016020809104026020016040519081016040528092919081815260200182805461082b906119d5565b80156108785780601f1061084d57610100808354040283529160200191610878565b820191906000526020600020905b81548152906001019060200180831161085b57829003601f168201915b5050505050905090565b60008060346000610891610b0a565b73ffffffffffffffffffffffffffffffffffffffff1673ffffffffffffffffffffffffffffffffffffffff16815260200190815260200160002060008573ffffffffffffffffffffffffffffffffffffffff1673ffffffffffffffffffffffffffffffffffffffff1681526020019081526020016000205490508281101561094e576040517f08c379a000000000000000000000000000000000000000000000000000000000815260040161094590611800565b60405180910390fd5b610962610959610b0a565b85858403610b12565b600191505092915050565b600061098161097a610b0a565b8484610cdd565b6001905092915050565b6000603460008473ffffffffffffffffffffffffffffffffffffffff1673ffffffffffffffffffffffffffffffffffffffff16815260200190815260200160002060008373ffffffffffffffffffffffffffffffffffffffff1673ffffffffffffffffffffffffffffffffffffffff16815260200190815260200160002054905092915050565b610a1a610b0a565b73ffffffffffffffffffffffffffffffffffffffff16610a386107c6565b73ffffffffffffffffffffffffffffffffffffffff1614610a8e576040517f08c379a0000000000000000000000000000000000000000000000000000000008152600401610a85906117a0565b60405180910390fd5b600073ffffffffffffffffffffffffffffffffffffffff168173ffffffffffffffffffffffffffffffffffffffff161415610afe576040517f08c379a0000000000000000000000000000000000000000000000000000000008152600401610af590611700565b60405180910390fd5b610b0781611108565b50565b600033905090565b600073ffffffffffffffffffffffffffffffffffffffff168373ffffffffffffffffffffffffffffffffffffffff161415610b82576040517f08c379a0000000000000000000000000000000000000000000000000000000008152600401610b79906117e0565b60405180910390fd5b600073ffffffffffffffffffffffffffffffffffffffff168273ffffffffffffffffffffffffffffffffffffffff161415610bf2576040517f08c379a0000000000000000000000000000000000000000000000000000000008152600401610be990611720565b60405180910390fd5b80603460008573ffffffffffffffffffffffffffffffffffffffff1673ffffffffffffffffffffffffffffffffffffffff16815260200190815260200160002060008473ffffffffffffffffffffffffffffffffffffffff1673ffffffffffffffffffffffffffffffffffffffff168152602001908152602001600020819055508173ffffffffffffffffffffffffffffffffffffffff168373ffffffffffffffffffffffffffffffffffffffff167f8c5be1e5ebec7d5bd14f71427d1e84f3dd0314c0f7b2291e5b200ac8c7c3b92583604051610cd09190611840565b60405180910390a3505050565b600073ffffffffffffffffffffffffffffffffffffffff168373ffffffffffffffffffffffffffffffffffffffff161415610d4d576040517f08c379a0000000000000000000000000000000000000000000000000000000008152600401610d44906117c0565b60405180910390fd5b600073ffffffffffffffffffffffffffffffffffffffff168273ffffffffffffffffffffffffffffffffffffffff161415610dbd576040517f08c379a0000000000000000000000000000000000000000000000000000000008152600401610db4906116e0565b60405180910390fd5b610dc88383836111ce565b6000603360008573ffffffffffffffffffffffffffffffffffffffff1673ffffffffffffffffffffffffffffffffffffffff16815260200190815260200160002054905081811015610e4f576040517f08c379a0000000000000000000000000000000000000000000000000000000008152600401610e4690611740565b60405180910390fd5b818103603360008673ffffffffffffffffffffffffffffffffffffffff1673ffffffffffffffffffffffffffffffffffffffff1681526020019081526020016000208190555081603360008573ffffffffffffffffffffffffffffffffffffffff1673ffffffffffffffffffffffffffffffffffffffff1681526020019081526020016000206000828254610ee491906118e8565b925050819055508273ffffffffffffffffffffffffffffffffffffffff168473ffffffffffffffffffffffffffffffffffffffff167fddf252ad1be2c89b69c2b068fc378daa952ba7f163c4a11628f55a4df523b3ef84604051610f489190611840565b60405180910390a3610f5b8484846111d3565b50505050565b6000610f6c306111d8565b15905090565b600073ffffffffffffffffffffffffffffffffffffffff168273ffffffffffffffffffffffffffffffffffffffff161415610fe2576040517f08c379a0000000000000000000000000000000000000000000000000000000008152600401610fd990611820565b60405180910390fd5b610fee600083836111ce565b61100381609a546111eb90919063ffffffff16565b609a8190555061105b81609760008573ffffffffffffffffffffffffffffffffffffffff1673ffffffffffffffffffffffffffffffffffffffff168152602001908152602001600020546111eb90919063ffffffff16565b609760008473ffffffffffffffffffffffffffffffffffffffff1673ffffffffffffffffffffffffffffffffffffffff168152602001908152602001600020819055508173ffffffffffffffffffffffffffffffffffffffff16600073ffffffffffffffffffffffffffffffffffffffff167fddf252ad1be2c89b69c2b068fc378daa952ba7f163c4a11628f55a4df523b3ef836040516110fc9190611840565b60405180910390a35050565b6000606560009054906101000a900473ffffffffffffffffffffffffffffffffffffffff16905081606560006101000a81548173ffffffffffffffffffffffffffffffffffffffff021916908373ffffffffffffffffffffffffffffffffffffffff1602179055508173ffffffffffffffffffffffffffffffffffffffff168173ffffffffffffffffffffffffffffffffffffffff167f8be0079c531659141344cd1fd0a4f28419497f9722a3daafe3b4186f6b6457e060405160405180910390a35050565b505050565b505050565b600080823b905060008111915050919050565b600081836111f991906118e8565b905092915050565b82805461120d906119d5565b90600052602060002090601f01602090048101928261122f5760008555611276565b82601f1061124857805160ff1916838001178555611276565b82800160010185558215611276579182015b8281111561127557825182559160200191906001019061125a565b5b5090506112839190611287565b5090565b5b808211156112a0576000816000905550600101611288565b5090565b60006112b76112b28461189b565b611876565b9050828152602081018484840111156112cf57600080fd5b6112da848285611993565b509392505050565b6000813590506112f181611def565b92915050565b600082601f83011261130857600080fd5b81356113188482602086016112a4565b91505092915050565b60008135905061133081611e06565b92915050565b60006020828403121561134857600080fd5b6000611356848285016112e2565b91505092915050565b6000806040838503121561137257600080fd5b6000611380858286016112e2565b9250506020611391858286016112e2565b9150509250929050565b6000806000606084860312156113b057600080fd5b60006113be868287016112e2565b93505060206113cf868287016112e2565b92505060406113e086828701611321565b9150509250925092565b600080604083850312156113fd57600080fd5b600061140b858286016112e2565b925050602061141c85828601611321565b9150509250929050565b6000806040838503121561143957600080fd5b600083013567ffffffffffffffff81111561145357600080fd5b61145f858286016112f7565b925050602083013567ffffffffffffffff81111561147c57600080fd5b611488858286016112f7565b9150509250929050565b61149b8161193e565b82525050565b6114aa81611950565b82525050565b60006114bb826118cc565b6114c581856118d7565b93506114d58185602086016119a2565b6114de81611ac5565b840191505092915050565b60006114f66023836118d7565b915061150182611ad6565b604082019050919050565b60006115196026836118d7565b915061152482611b25565b604082019050919050565b600061153c6022836118d7565b915061154782611b74565b604082019050919050565b600061155f6026836118d7565b915061156a82611bc3565b604082019050919050565b6000611582602e836118d7565b915061158d82611c12565b604082019050919050565b60006115a56028836118d7565b91506115b082611c61565b604082019050919050565b60006115c86020836118d7565b91506115d382611cb0565b602082019050919050565b60006115eb6025836118d7565b91506115f682611cd9565b604082019050919050565b600061160e6024836118d7565b915061161982611d28565b604082019050919050565b60006116316025836118d7565b915061163c82611d77565b604082019050919050565b6000611654601f836118d7565b915061165f82611dc6565b602082019050919050565b6116738161197c565b82525050565b61168281611986565b82525050565b600060208201905061169d6000830184611492565b92915050565b60006020820190506116b860008301846114a1565b92915050565b600060208201905081810360008301526116d881846114b0565b905092915050565b600060208201905081810360008301526116f9816114e9565b9050919050565b600060208201905081810360008301526117198161150c565b9050919050565b600060208201905081810360008301526117398161152f565b9050919050565b6000602082019050818103600083015261175981611552565b9050919050565b6000602082019050818103600083015261177981611575565b9050919050565b6000602082019050818103600083015261179981611598565b9050919050565b600060208201905081810360008301526117b9816115bb565b9050919050565b600060208201905081810360008301526117d9816115de565b9050919050565b600060208201905081810360008301526117f981611601565b9050919050565b6000602082019050818103600083015261181981611624565b9050919050565b6000602082019050818103600083015261183981611647565b9050919050565b6000602082019050611855600083018461166a565b92915050565b60006020820190506118706000830184611679565b92915050565b6000611880611891565b905061188c8282611a07565b919050565b6000604051905090565b600067ffffffffffffffff8211156118b6576118b5611a96565b5b6118bf82611ac5565b9050602081019050919050565b600081519050919050565b600082825260208201905092915050565b60006118f38261197c565b91506118fe8361197c565b9250827fffffffffffffffffffffffffffffffffffffffffffffffffffffffffffffffff0382111561193357611932611a38565b5b828201905092915050565b60006119498261195c565b9050919050565b60008115159050919050565b600073ffffffffffffffffffffffffffffffffffffffff82169050919050565b6000819050919050565b600060ff82169050919050565b82818337600083830152505050565b60005b838110156119c05780820151818401526020810190506119a5565b838111156119cf576000848401525b50505050565b600060028204905060018216806119ed57607f821691505b60208210811415611a0157611a00611a67565b5b50919050565b611a1082611ac5565b810181811067ffffffffffffffff82111715611a2f57611a2e611a96565b5b80604052505050565b7f4e487b7100000000000000000000000000000000000000000000000000000000600052601160045260246000fd5b7f4e487b7100000000000000000000000000000000000000000000000000000000600052602260045260246000fd5b7f4e487b7100000000000000000000000000000000000000000000000000000000600052604160045260246000fd5b6000601f19601f8301169050919050565b7f45524332303a207472616e7366657220746f20746865207a65726f206164647260008201527f6573730000000000000000000000000000000000000000000000000000000000602082015250565b7f4f776e61626c653a206e6577206f776e657220697320746865207a65726f206160008201527f6464726573730000000000000000000000000000000000000000000000000000602082015250565b7f45524332303a20617070726f766520746f20746865207a65726f20616464726560008201527f7373000000000000000000000000000000000000000000000000000000000000602082015250565b7f45524332303a207472616e7366657220616d6f756e742065786365656473206260008201527f616c616e63650000000000000000000000000000000000000000000000000000602082015250565b7f496e697469616c697a61626c653a20636f6e747261637420697320616c72656160008201527f647920696e697469616c697a6564000000000000000000000000000000000000602082015250565b7f45524332303a207472616e7366657220616d6f756e742065786365656473206160008201527f6c6c6f77616e6365000000000000000000000000000000000000000000000000602082015250565b7f4f776e61626c653a2063616c6c6572206973206e6f7420746865206f776e6572600082015250565b7f45524332303a207472616e736665722066726f6d20746865207a65726f20616460008201527f6472657373000000000000000000000000000000000000000000000000000000602082015250565b7f45524332303a20617070726f76652066726f6d20746865207a65726f2061646460008201527f7265737300000000000000000000000000000000000000000000000000000000602082015250565b7f45524332303a2064656372656173656420616c6c6f77616e63652062656c6f7760008201527f207a65726f000000000000000000000000000000000000000000000000000000602082015250565b7f45524332303a206d696e7420746f20746865207a65726f206164647265737300600082015250565b611df88161193e565b8114611e0357600080fd5b50565b611e0f8161197c565b8114611e1a57600080fd5b5056fea26469706673582212209a907f01c14c8a659aaa69c24f5d340c4eaa05df3be0c1f89821133e9caf1d3664736f6c63430008040033",
  "linkReferences": {},
  "deployedLinkReferences": {}
}